:100000000C9446000C9465000C9465000C946500FB
:100010000C9465000C9465000C9465000C946500CC
:100020000C9465000C9465000C9465000C946500BC
:100030000C9465000C9410010C9465000C94650000
:100040000C9465000C9465000C9465000C9465009C
:100050000C9465000C9465000C9465000C9465008C
:100060000C9465000C9465000C9465000C9465007C
:100070000C9465000C9465000C9465000C9465006C
:100080000C9465000C9465000C94650011241FBE4F
:10009000CFEFD0E4DEBFCDBF11E0A0E0B1E0E0E003
:1000A000F5E000E00BBF02C007900D92A231B1074E
:1000B000D9F711E0A2E1B1E001C01D92AC31B10766
:1000C000E1F70E944C020C947E020C94000040E088
:1000D00050E00CC000002F5F3F4F02C020E030E036
:1000E000273063E03607B4F34F5F5F4F4817590777
:1000F000ACF308955E9888B95F9A00005F9882E03B
:1001000090E00E946700089581E00E947A000895BF
:10011000813120F481580E947A00089581550E940F
:100120007A00089584E690E00E94670088E30E94C8
:100130007A0086E00E947A008FE00E947A0081E0D7
:100140000E947A008AE090E00E94670008955E9A1B
:1001500088B95F9A00005F9881E090E00E94670094
:100160000895EF92FF920F931F93CF93DF93182F71
:10017000EB010E9484000EC001E0010F812F0E945C
:1001800088007E018FEFE81AF80A88810E94A70094
:10019000102FE70188818111EFCFDF91CF911F915F
:1001A0000F91FF90EF900895CF93C82F8A3019F4E4
:1001B0008DE00E94D4009091C00095FFFCCFC093C9
:1001C000C60080E090E0CF9108958BE0809381009D
:1001D0008DE790E0909389008093880082E080937F
:1001E0006F00109285001092840080910001909120
:1001F0000101A0910201B09103018093120190933B
:100200001301A0931401B09315018FB780688FBFBD
:10021000089510928100089581E080931601089559
:100220001F920F920FB60F9211240BB60F922F93BD
:100230003F934F935F936F937F938F939F93AF936E
:10024000BF93EF93FF938091120190911301A091BE
:100250001401B09115010197A109B1098093120110
:1002600090931301A0931401B0931501892B8A2B4D
:100270008B2B91F40E940C0180910001909101015F
:10028000A0910201B0910301809312019093130198
:10029000A0931401B0931501FF91EF91BF91AF911D
:1002A0009F918F917F916F915F914F913F912F918E
:1002B0000F900BBE0F900FBE0F901F90189560937C
:1002C00000017093010180930201909303016093F8
:1002D00012017093130180931401909315010895F6
:1002E00080911701909118018230910509F44DC059
:1002F00028F4009759F0019781F096C0833091055A
:1003000009F468C0049709F488C08EC081E090E0C9
:1003100090931801809317018BC08091190181116E
:100320000BC090911B01911107C081E090E0909368
:100330001801809317017CC0882359F090911B010C
:10034000911107C082E090E090931801809317010B
:100350006FC081110BC090911B01992339F083E08C
:1003600090E0909318018093170162C0882309F4EC
:100370005FC080911B01882309F45AC084E090E09B
:10038000909318018093170153C080911901811136
:1003900007C081E090E0909318018093170148C056
:1003A000882359F090911B01911107C082E090E0E1
:1003B00090931801809317013BC08823C9F1809165
:1003C0001B018823A9F184E090E0909318018093A9
:1003D00017012EC080911B01811107C081E090E0C0
:1003E000909318018093170123C0909119019111E6
:1003F00009C0882339F083E090E09093180180933E
:10040000170116C09923A1F0882391F084E090E0B1
:1004100090931801809317010BC081E090E09093B6
:1004200018018093170104C010921801109217014F
:1004300080911701909118018230910579F028F48C
:10044000009749F00197F9F01CC08330910571F0D5
:100450000497A1F016C010921A0115C080911A01DC
:10046000893088F48F5F80931A010DC080911A0142
:10047000882349F0815080931A0105C010921A0117
:1004800002C010921A0181E00E94880080911A0136
:10049000805D0E94A700089511B88FEF82B987B9D7
:1004A00018B88AB91BB8109218011092170110924F
:1004B0001A010E94920081E00E94880080911A0136
:1004C000805D0E94A70068EE73E080E090E00E94EB
:1004D0005F010E94E50080B18095817080931901D1
:1004E00080B18095827080931B010E947001809181
:1004F00016018823E1F310921601EDCFF894FFCF97
:10050000010000000000000200000000D400000014
:020510000000E9
:00000001FF
