:100000000C9446000C9465000C9465000C946500FB
:100010000C9465000C9465000C9465000C946500CC
:100020000C9465000C9465000C9465000C946500BC
:100030000C9465000C9410010C9465000C94650000
:100040000C9465000C9465000C9465000C9465009C
:100050000C9465000C9465000C9465000C9465008C
:100060000C9465000C9465000C9465000C9465007C
:100070000C9465000C9465000C9465000C9465006C
:100080000C9465000C9465000C94650011241FBE4F
:10009000CFEFD0E4DEBFCDBF11E0A0E0B1E0EEEDE8
:1000A000F4E000E00BBF02C007900D92AE31B10743
:1000B000D9F711E0AEE1B1E001C01D92A832B1075D
:1000C000E1F70E944C020C946D020C94000040E099
:1000D00050E00CC000002F5F3F4F02C020E030E036
:1000E000273063E03607B4F34F5F5F4F4817590777
:1000F000ACF308955E9888B95F9A00005F9882E03B
:1001000090E00E946700089581E00E947A000895BF
:10011000813120F481580E947A00089581550E940F
:100120007A00089584E690E00E94670088E30E94C8
:100130007A0086E00E947A008FE00E947A0081E0D7
:100140000E947A008AE090E00E94670008955E9A1B
:1001500088B95F9A00005F9881E090E00E94670094
:100160000895EF92FF920F931F93CF93DF93182F71
:10017000EB010E9484000EC001E0010F812F0E945C
:1001800088007E018FEFE81AF80A88810E94A70094
:10019000102FE70188818111EFCFDF91CF911F915F
:1001A0000F91FF90EF900895CF93C82F8A3019F4E4
:1001B0008DE00E94D4009091C00095FFFCCFC093C9
:1001C000C60080E090E0CF9108958BE0809381009D
:1001D0008DE790E0909389008093880082E080937F
:1001E0006F00109285001092840080910001909120
:1001F0000101A0910201B091030180931E0190932F
:100200001F01A0932001B09321018FB780688FBF99
:10021000089510928100089581E08093220108954D
:100220001F920F920FB60F9211240BB60F922F93BD
:100230003F934F935F936F937F938F939F93AF936E
:10024000BF93EF93FF9380911E0190911F01A091A6
:100250002001B09121010197A109B10980931E01EC
:1002600090931F01A0932001B0932101892B8A2B29
:100270008B2B91F40E940C0180910001909101015F
:10028000A0910201B091030180931E0190931F0180
:10029000A0932001B0932101FF91EF91BF91AF9105
:1002A0009F918F917F916F915F914F913F912F918E
:1002B0000F900BBE0F900FBE0F901F90189560937C
:1002C00000017093010180930201909303016093F8
:1002D0001E0170931F0180932001909321010895C6
:1002E00080912301909124018230910509F44DC041
:1002F00028F4009759F0019781F096C0833091055A
:1003000009F468C0049709F488C08EC081E090E0C9
:1003100090932401809323018BC08091250181114A
:100320000BC090912701911107C081E090E090935C
:100330002401809323017CC0882359F090912701E8
:10034000911107C082E090E09093240180932301F3
:100350006FC081110BC090912701992339F083E080
:1003600090E0909324018093230162C0882309F4D4
:100370005FC080912701882309F45AC084E090E08F
:10038000909324018093230153C080912501811112
:1003900007C081E090E0909324018093230148C03E
:1003A000882359F090912701911107C082E090E0D5
:1003B00090932401809323013BC08823C9F180914D
:1003C00027018823A9F184E090E090932401809391
:1003D00023012EC080912701811107C081E090E0A8
:1003E000909324018093230123C0909125019111C2
:1003F00009C0882339F083E090E090932401809332
:10040000230116C09923A1F0882391F084E090E0A5
:1004100090932401809323010BC081E090E090939E
:1004200024018093230104C010922401109223011F
:1004300080912301909124018230910579F028F474
:10044000009749F00197F9F01CC08330910571F0D5
:100450000497A1F016C01092260115C080912601C4
:10046000893088F48F5F809326010DC0809126012A
:10047000882349F081508093260105C010922601FF
:1004800002C01092260181E00E948800809126011E
:10049000805D0E94A70008958FEF87B918B88AB9C8
:1004A0001BB81092240110922301109226010E9481
:1004B000920062E171E081E00E94B10068EE73E0B9
:1004C00080E090E00E945F010E94E500809122019F
:0E04D0008823E1F310922201F9CFF894FFCFB8
:1004DE00010000000000000200000000D400000037
:0E04EE00000048656C6C6F20576F726C6400E4
:00000001FF
